{
  "contractName": "StoreCustomers",
  "abi": [
    {
      "inputs": [],
      "name": "message",
      "outputs": [
        {
          "internalType": "string",
          "name": "",
          "type": "string"
        }
      ],
      "stateMutability": "view",
      "type": "function"
    },
    {
      "inputs": [
        {
          "internalType": "string",
          "name": "newMessage",
          "type": "string"
        }
      ],
      "name": "setMessage",
      "outputs": [],
      "stateMutability": "nonpayable",
      "type": "function"
    }
  ],
  "bytecode": "0x608060405234801561001057600080fd5b506103a0806100206000396000f3fe608060405234801561001057600080fd5b50600436106100365760003560e01c8063368b87721461003b578063e21f37ce14610050575b600080fd5b61004e610049366004610122565b61006e565b005b61005861007e565b60405161006591906101d3565b60405180910390f35b600061007a82826102aa565b5050565b6000805461008b90610221565b80601f01602080910402602001604051908101604052809291908181526020018280546100b790610221565b80156101045780601f106100d957610100808354040283529160200191610104565b820191906000526020600020905b8154815290600101906020018083116100e757829003601f168201915b505050505081565b634e487b7160e01b600052604160045260246000fd5b60006020828403121561013457600080fd5b813567ffffffffffffffff8082111561014c57600080fd5b818401915084601f83011261016057600080fd5b8135818111156101725761017261010c565b604051601f8201601f19908116603f0116810190838211818310171561019a5761019a61010c565b816040528281528760208487010111156101b357600080fd5b826020860160208301376000928101602001929092525095945050505050565b600060208083528351808285015260005b81811015610200578581018301518582016040015282016101e4565b506000604082860101526040601f19601f8301168501019250505092915050565b600181811c9082168061023557607f821691505b60208210810361025557634e487b7160e01b600052602260045260246000fd5b50919050565b601f8211156102a557600081815260208120601f850160051c810160208610156102825750805b601f850160051c820191505b818110156102a15782815560010161028e565b5050505b505050565b815167ffffffffffffffff8111156102c4576102c461010c565b6102d8816102d28454610221565b8461025b565b602080601f83116001811461030d57600084156102f55750858301515b600019600386901b1c1916600185901b1785556102a1565b600085815260208120601f198616915b8281101561033c5788860151825594840194600190910190840161031d565b508582101561035a5787850151600019600388901b60f8161c191681555b5050505050600190811b0190555056fea2646970667358221220dc36f887c49272f33408230263229a54981198f05438c80871d618b26f8df7dd64736f6c63430008110033",
  "immutableReferences": {},
  "source": "// SPDX-License-Identifier: MIT\r\n\r\npragma solidity ^0.8.17;\r\n\r\ncontract StoreCustomers {\r\n    string public message;\r\n\r\n    function setMessage(string memory newMessage)public{\r\n        message = newMessage;\r\n    }\r\n}\r\n",
  "sourcePath": "C:\\Users\\Tio Macal\\Desktop\\smart-contract\\contracts\\StoreCustomers.sol",
  "compiler": {
    "name": "solc",
    "version": "0.8.17+commit.8df45f5f.Emscripten.clang"
  },
  "schemaVersion": "3.4.10",
  "updatedAt": "2022-09-21T03:28:59.455Z",
  "devdoc": {
    "kind": "dev",
    "methods": {},
    "version": 1
  },
  "userdoc": {
    "kind": "user",
    "methods": {},
    "version": 1
  }
}